:020000020000FC
:100000000C9402000FEF0DBF01E20EBF0FEF00BB1B
:1000100001B9002701BB02B908E343D052D06BD02D
:1000200008E33FD04ED05ED008E33BD04AD008E38F
:1000300038D047D008E035D044D001E032D041D0AC
:1000400006E02FD03ED00EE02CD03BD003E430D0E1
:1000500038D00FE42DD035D00DE42AD032D000E5D1
:1000600027D02FD002E324D02CD001E321D029D0F7
:1000700002E31ED026D001E31BD023D000EC11D028
:1000800020D00CE415D01DD001E612D01AD002E623
:100090000FD017D000E20CD014D004E309D011D057
:1000A000FFCF01BB1FD0169A1DD016981BD0089504
:1000B00001BB179A17D0169A15D0169813D0179817
:1000C00008950F93002700BB01BB159A0BD0169A19
:1000D00009D00FB1169807FDF9CF15980FEF00BBA7
:1000E0000F9108958F939F939FE08CE90197F1F70B
:1000F0009F918F910895F6DFF5DFF4DFF3DFF2DFF4
:02010000089560
:00000001FF
